:100000000C9480010C94A8010C94A8010C94A801F4
:100010000C942E140C940A140C94A8010C94A801AE
:100020000C94A8010C94A8010C94A8010C947F13C3
:100030000C94E1120C94BE090C94A8010C94A80134
:100040000C941C090C94A8010C948C090C9466095E
:100050000C94A8010C94A8010C94A8010C94A8017C
:100060000C94A8010C94A8014E414E494E49545994
:10007000494E46CDCCCC3D0AD7233C17B7D1387773
:10008000CC2B329595E6241FB14F0A000020410089
:1000900000C84200401C4620BCBE4CCA1B0E5AAED3
:1000A000C59D740002030507090A0C0D0F111214F7
:1000B0001517181A1B1C1E1F202223242627282947
:1000C0002B2C2D2E2F303132333435363738393A08
:1000D0003B3C3D3E3F404041424344444546464709
:1000E0004848494A4A4B4B4C4D4D4E4E4F4F50504D
:1000F00050515152525353535454545455555556CC
:10010000565656565757575757575858585858587D
:10011000585858585858585858585858585858585F
:10012000575757575757565656565655555555546F
:1001300054545453535352525251515150504F4FA3
:100140004F4E4E4D4D4C4C4B4B4A4A4949484847FF
:100150004746464544444343424141403F3F3E3D7C
:100160003D3C3B3B3A393938373636353433333218
:1001700031302F2F2E2D2C2B2A2A292827262524D3
:1001800023222221201F1E1D1C1B1A1918171615A9
:1001900014131211100F0E0D0C0B0A090807060498
:1001A00003020100010204050607080A0B0C0D0EEC
:1001B0000F1012131415161718191A1B1C1D1E1FC9
:1001C000202122232425262728292A2B2C2D2E2EB8
:1001D0002F3031323334343536373838393A3B3BC7
:1001E0003C3D3E3E3F4040414242434444454546FB
:1001F0004747484849494A4A4B4C4C4C4D4D4E4E56
:100200004F4F5050505151525252535353545454D3
:10021000545555555556565656575757575757577D
:10022000585858585858585858585858585858584E
:10023000585858585858575757575757565656564C
:100240005655555554545454535353525251515179
:1002500050504F4F4E4E4D4D4C4C4B4B4A4A4948D7
:100260004847474645444443424241403F3F3E3D64
:100270003C3B3A3A393837363534333231302F2E29
:100280002D2C2B2A2928272624232221201E1D1C21
:100290001B19181716141311100F0D0C0A09080654
:1002A00005030200000000230026002900000000D2
:1002B0000800020100000304070000000000000025
:1002C0000000000000250028002B00000000002492
:1002D0000027002A000404040404040404020202A7
:1002E0000202020303030303030102040810204077
:1002F000800102040810200102040810200099184F
:1003000011241FBECFEFD8E0DEBFCDBF23E0A6E4AF
:10031000B1E001C01D92AC39B207E1F711E0A0E0F5
:10032000B1E0E4E2FEE302C005900D92A634B1070D
:10033000D9F711E0C0E8D1E004C02197FE010E9486
:10034000001CCF37D107C9F70E9452140C94101F1C
:100350000C940000FC01828984FF1BC083FF1BC03A
:1003600082A98E7F82AB9FB7F89482898D73826455
:100370008160828B9FBF83A9811109C08FEF9FEF9E
:10038000DC0184AF95AFA6AFB7AF82E083AB80E06E
:1003900008958EEF08958DEF089590E0FC01E751E8
:1003A000FD4F24918B529D4FFC018491882399F03D
:1003B00090E0880F991FFC01E553FD4FA591B49182
:1003C000FC01EF53FD4F859194918FB7F894EC9118
:1003D000E22BEC938FBF089590E0FC01E355FD4FB5
:1003E0002491FC01E751FD4F3491FC01EB52FD4F8C
:1003F000E491EE23C9F0222339F0233001F1A8F46F
:10040000213019F1223029F1F0E0EE0FFF1FEF53F8
:10041000FD4FA591B4918FB7F894EC91611126C06E
:1004200030953E233C938FBF08952730A9F02830A4
:10043000C9F0243049F7809180008F7D03C08091FE
:1004400080008F7780938000DFCF84B58F7784BD65
:10045000DBCF84B58F7DFBCF8091B0008F77809309
:10046000B000D2CF8091B0008F7DF9CF3E2BDACF94
:100470003FB7F8948091F1029091F202A091F302BB
:10048000B091F40226B5A89B05C02F3F19F0019644
:10049000A11DB11D3FBFBA2FA92F982F8827BC01DE
:1004A000CD01620F711D811D911D42E0660F771F06
:1004B000881F991F4A95D1F70895AF92BF92CF92A6
:1004C000DF92EF92FF920F931F93CF93DF936C0114
:1004D0007B018B01040F151FEB015E01AE18BF08F5
:1004E000C017D10759F06991D601ED91FC910190A7
:1004F000F081E02DC6010995892B79F7C501DF91BF
:10050000CF911F910F91FF90EF90DF90CF90BF9010
:10051000AF900895FC01538D448D252F30E0842F3A
:1005200090E0821B930B541710F0CF96089501971B
:100530000895FC01918D828D981761F0A28DAE0F08
:10054000BF2FB11D5D968C91928D9F5F9F73928F8F
:1005500090E008958FEF9FEF08952FB7F894809162
:10056000F5029091F602A091F702B091F8022FBF28
:100570008093010390930203A0930303B0930403B9
:1005800089EF92E00E94990297FF26C02FB7F89456
:100590008091F5029091F602A091F702B091F802D5
:1005A0002FBF4091010350910203609103037091AA
:1005B0000403841B950BA60BB70B4091FD025091D1
:1005C000FE026091FF027091000384179507A60751
:1005D000B707B0F28FEF9FEF0895FC01918D828DE8
:1005E000981731F0828DE80FF11D858D90E0089508
:1005F0008FEF9FEF0895FC01918D228D892F90E060
:10060000805C9F4F821B91098F739927089589EF12
:1006100092E00E94FB0221E0892B09F420E0822F66
:10062000089580E090E0892B29F00E940703811152
:100630000C9400000895FC01A48DA80FB92FB11DE2
:10064000A35ABF4F2C91848D90E001968F73992708
:10065000848FA689B7892C93A089B1898C918370E6
:1006600080648C93938D848D981306C00288F389DF
:10067000E02D80818F7D80830895EF92FF920F930C
:100680001F93CF93DF93EC0181E0888F9B8D8C8D3E
:1006900098131AC0E889F989808185FF15C09FB732
:1006A000F894EE89FF896083E889F98980818370F5
:1006B000806480839FBF81E090E0DF91CF911F91A4
:1006C0000F91FF90EF900895F62E0B8D10E00F5FC5
:1006D0001F4F0F731127E02E8C8D8E110CC00FB69B
:1006E00007FCFACFE889F989808185FFF5CFCE0133
:1006F0000E941B03F1CFEB8DEC0FFD2FF11DE35A90
:10070000FF4FF0829FB7F8940B8FEA89FB898081B5
:100710008062CFCFCF93DF93EC01888D8823B9F02F
:10072000AA89BB89E889F9898C9185FD03C08081FC
:1007300086FD0DC00FB607FCF7CF8C9185FFF2CF79
:10074000808185FFEDCFCE010E941B03E9CFDF91B1
:10075000CF910895AC01452F55274695742F917080
:100760009E5F9C0136952795880F991FF901FF27F9
:10077000ED55FE4F649181FF09C02F5FE22FF0E03D
:10078000ED55FE4FE491E60F6E2F6695861B91099D
:100790007B3040F04A50510902C0880F991F4A959A
:1007A000E2F708957A3089F022E030E0793011F4F0
:1007B00021E030E0820F931F2AE030E0241B350B4C
:1007C00002C0959587952A95E2F70895CF9397FDF6
:1007D00038C0811520E49207C4F5C92FC695C031F1
:1007E00070F4811520E292073CF40E94AA03BC0138
:1007F00090E080E0CF9108958FEF9FEFF8CFCF503A
:100800002C2F30E0322F2227330F821B930B97FDC2
:1008100012C0811520E292078CF40E94AA03B0E076
:10082000A0E0BC01CD0104C0660F771F881F991F8F
:10083000CA95D2F7DFCF90E080E0F1CF8FEF9FEF46
:10084000EECF60E070E0CB01D5CF6FEF7FEFCB0153
:10085000D1CF982F807F79F49295907F84E0292FD3
:10086000207C19F4990F990F8E5F97FD07C099238B
:1008700021F08F5F089580E0F2CF8E5F08950F938F
:100880001F93CF93DF938B019C0100271127222711
:10089000012B022B032B09F058C08B019C01002770
:1008A00011273327012B022B032B91F5EB0110E0CD
:1008B00000E08D2F0E942904883009F05FC08C2F42
:1008C0000E942904282F60E070E88830C9F0BE013A
:1008D000772781E0820F02C0660F771F8A95E2F7C3
:1008E0007727FB01ED55FF4F849197E0921B792B01
:1008F000660F771F8F5F90E095958795680F791F3A
:10090000C801860F971FDF91CF911F910F91089516
:100910008B019C0100271127207F3327012B022BFD
:10092000032B59F4A4E09695879577956795AA953A
:10093000D1F7EB0100E018E0BCCF672F782F892FAB
:100940009927EB0100E010E1B4CF8B019C01002757
:1009500011272227307F012B022B032B59F4ECE0C7
:100960009695879577956795EA95D1F7EB0100E025
:1009700018E19FCFEC0100E010E29BCF91E0980FCF
:10098000BE0102C0660F771F9A95E2F79FE0981BA1
:10099000AB0125E0569547952A95E1F7672F772714
:1009A000FB01ED55FF4F2491FA01E770FF273397C4
:1009B000B8F06F5FE62FF0E0ED55FF4FE4912F5F49
:1009C000E20FE40FF52FF11DF695E795F695E79503
:1009D000692F70E0762F6627770F6E0F7F1F90CFFD
:1009E000E22FEE0FEECFFC01E759FF4F21E020830D
:1009F00086599F4FFC0180819181009721F00197DA
:100A000009F447C00895E0915F02EF702E2F30E0A7
:100A100086E0E89FF0011124E250FE4F818180FFC3
:100A200007C0E0916302F0916402809165028083C7
:100A300080918400909185009058909389008093D4
:100A4000880086E0829FF001839FF00D1124E25020
:100A5000FE4F80818823C1F080918000806C80935C
:100A6000800082E086BB80916F00826080936F007F
:100A7000F89480918400909185000A969093890063
:100A80008093880078940895809180008F7B80689F
:100A9000E6CFE091D302EF702E2F30E086E0E89FA2
:100AA000F0011124EE58FD4F818180FF07C0E091D5
:100AB000D702F091D8028091D9028083809184007E
:100AC00090918500905890938B0080938A0086E0E7
:100AD000829FF001839FF00D1124EE58FD4F80811D
:100AE0008823B9F08091800080638093800084E047
:100AF00086BB80916F00846080936F00F894809132
:100B00008400909185000A9690938B0080938A00D0
:100B1000B9CF809180008F7E8062E7CF0F931F93C3
:100B2000CF93DF93EC01CB01BA010E943F042F89E0
:100B3000388D28173907CCF1488959892AEB3DE5CA
:100B4000241B350B813000E490074CF5813010EC0C
:100B5000910744F1880F991FA901481B590BCA013D
:100B60000E94E603AB01BC0188859985AA85BB85F7
:100B70000296A11DB11DE2E0B695A79597958795C0
:100B8000EA95D1F78C019D01040F151F261F371F11
:100B9000C901B801DF91CF911F910F9108958FEF97
:100BA0009FE7DACF81E090E8D7CF298D3A8D281BD7
:100BB000390BC90137FD019695958795820F931FD3
:100BC000DF91CF911F910F910C94E6039C0197FF49
:100BD00002C02F5F3F4F3595279597FD079653E04D
:100BE000959587955A95E1F7820F931F9C0197FF82
:100BF00002C0215F3F4F44E0359527954A95E1F7C4
:100C0000280F391FA90137FF02C041505F4F852FC0
:100C1000952F990F990B820F931F019697FD0196BF
:100C20009595879508950F931F93CF93DF93EC01CC
:100C300088859985AA85BB85481759076A077B0768
:100C400040F10296A11DB11D32E0B695A79597958A
:100C500087953A95D1F78A019B01081B190B2A0B3E
:100C60003B0BC901B8010E943F0428893989820FD2
:100C7000931F97FD0196959587952DED3EE2A9016D
:100C8000481B590BCA01DF91CF911F910F910C9412
:100C9000E603CB01BA010E943F048C010E94E605E5
:100CA000081B190B898D9A8D801B910BECCFCF936C
:100CB000DF93EC019A01AB01211531054105510586
:100CC000B9F1CB01B90196958795779567957C5DCC
:100CD0008B409F4F0E94D71BFE01E45BFF4FE081DA
:100CE00084E7E89FF0011124E059FD4F8081918154
:100CF000B0E0A0E0281739074A075B07C8F08C89E5
:100D000084FF09C08E819F81A885B985281739077E
:100D10004A075B0759F09FB7F8942E833F834887B3
:100D200059878C89806182608C8B9FBF80E001C075
:100D30008FEFDF91CF9108956F3F59F0FC01E55B94
:100D4000FF4F2081261739F0319781E09081961767
:100D500019F080E0089581E008953FB7F894FC0110
:100D6000EF59FF4F20818E599F4FFC0180813FBF7B
:100D7000821B08952F923F924F925F926F927F92C3
:100D80008F929F92AF92BF92CF92DF92EF92FF929B
:100D90000F931F93CF93DF93CDB7DEB72A970FB68C
:100DA000F894DEBF0FBECDBF8C016B01242E672BE4
:100DB000A1F4442309F4FDC0FC01E759FF4F8081F1
:100DC0008111F7C03797908131978081981709F486
:100DD0000CC1C8010E94F304ECC00E94AD06803132
:100DE00009F405C1D601AD90BC90119712965C90A4
:100DF000B50190E080E0B1E0B51528F4252D30E094
:100E0000D5010E94A41B603872408105910508F449
:100E1000D2C098012E593F4F3A872987D9018C912A
:100E20008F70E82EF12C44244394F6019381F8014D
:100E3000ED59FF4F80819813412C3801F4E66F0E75
:100E4000711CD3018C91F801E759FF4FF887EF83AC
:100E500090E08F3F29F1C8010E94AD0698012F58FC
:100E60003F4F4901811109C0AF81B8853C903110D5
:100E700004C0F301808187FF08C0D4018C91342C19
:100E80003826481208C090E00CC0642D0E94EC0186
:100E9000F4014082F8CFD3018C91932D87FFF3CFDB
:100EA000312C86E08E9DF0018F9DF00D1124E00F16
:100EB000F11F5082818190FB84F940FA85F9D601B7
:100EC0001396DC9030FA80F9D0FA81F9818391E0B1
:100ED000951508F090E0818190FB82F9818386E08E
:100EE0008E9DF0018F9DF00D1124E00FF11F91E018
:100EF000511001C090E0818190FB83F9818326E04D
:100F00002E9DF0012F9DF00D1124E00FF11FB382F3
:100F1000A282C80184599F4FFC01DE011196019005
:100F20000D922A95E1F789809A80AB80BC80452D8F
:100F300050E070E060E0D11007C051954195510933
:100F4000052E000C660B770B480D591D6A1D7B1D85
:100F500049835A836B837C8349815A816B817C816D
:100F600026E02E9DF0012F9DF00D1124E00FF11FC2
:100F7000558344834E82DD823FB7F894F801E05AEE
:100F8000FF4F208121110DC0E985FA8520812F5F57
:100F9000208326E0FE013196DC0101900D922A9516
:100FA000E1F73FBFAF81B8858C91811102C021105C
:100FB00010CF80E001C08FEF2A960FB6F894DEBF05
:100FC0000FBECDBFDF91CF911F910F91FF90EF909A
:100FD000DF90CF90BF90AF909F908F907F906F9059
:100FE0005F904F903F902F9008958EEFE5CF81E076
:100FF000E3CFDC01FC01E45BFF4F208134E7329F4B
:10100000F0011124E959FD4F9081911110C0D5963E
:101010008C9191E081110BC0239FC001112482505B
:101020009E4F0E94AD0691E0811101C090E0892F92
:101030000895CF92DF92EF92FF92CF93DF9399B111
:1010400026B138E0939FC0011124807C2F73822B3E
:101050008093EF028091EF0280958093EF02609180
:10106000EF02C0900001D0900101E0900201F090E9
:10107000030170E090E080E00E94421AA70196010F
:101080000E94A11A0E94E51C6093EF028091EF027A
:10109000882321F08091EF028F3FD9F08091EF02F9
:1010A0008823C9F08091EF028093EF028091EF02D4
:1010B000811113C0E091E602F091E70284A98160FA
:1010C00084AB5E9ADF91CF91FF90EF90DF90CF904D
:1010D00008958FEFE9CF80E0E7CF8091EF028F3F57
:1010E00049F4E091E602F091E70284A9816084ABC3
:1010F0005E98E8CF5E9AC091E602D091E7026091D7
:10110000EF0270E090E080E00E94401A20E030E8BA
:101110004CEA56E40E94A11A20E030E04EE753E486
:101120000E94731C0E94E51CAB01BC01CE010E9411
:101130005706CE010296DF91CF91FF90EF90DF909E
:10114000CF900C94AA01FC0101900020E9F731979F
:10115000AF01481B590BBC0189EF92E00C945D0272
:101160008F929F92AF92BF920F931F93CF93DF9373
:10117000CDB7DEB7A1970FB6F894DEBF0FBECDBFD7
:1011800019A2423008F44AE08E010F5D1F4F842EF1
:10119000912CB12CA12CA50194010E94D71BE62F04
:1011A000B901CA01EA30F4F4E05DD801EE938D0193
:1011B000232B242B252B79F790E080E0109719F052
:1011C000CD010E94A308A1960FB6F894DEBF0FBE12
:1011D000CDBFDF91CF911F910F91BF90AF909F90A6
:1011E0008F900895E95CE1CF0F931F93CF93DF9326
:1011F000EC0188819981009759F02A813B8126175B
:10120000370730F081E0DF91CF911F910F91089562
:101210008B016F5F7F4F0E94431E009759F09983A7
:1012200088831B830A832C813D81232B59F7FC0182
:101230001082E8CF80E0E7CF1F920F920FB60F9297
:1012400011242F933F938F939F93AF93BF938091DC
:10125000F5029091F602A091F702B091F802309158
:10126000F00223E0230F2D3758F50196A11DB11D83
:101270002093F0028093F5029093F602A093F70278
:10128000B093F8028091F1029091F202A091F302E2
:10129000B091F4020196A11DB11D8093F1029093CB
:1012A000F202A093F302B093F402BF91AF919F9129
:1012B0008F913F912F910F900FBE0F901F90189517
:1012C00026E8230F0296A11DB11DD2CF1F920F92C7
:1012D0000FB60F9211242F933F934F935F936F9309
:1012E0007F938F939F93AF93BF93EF93FF9389EF78
:1012F00092E00E941B03FF91EF91BF91AF919F91EC
:101300008F917F916F915F914F913F912F910F90AE
:101310000FBE0F901F9018951F920F920FB60F924D
:1013200011242F938F939F93EF93FF93E0910903E1
:10133000F0910A038081E0910F03F091100382FD88
:101340001BC09081809112038F5F8F7320911303D4
:10135000821741F0E0911203F0E0E750FD4F958FC6
:1013600080931203FF91EF919F918F912F910F9096
:101370000FBE0F901F9018958081F4CF1F920F928F
:101380000FB60F9211242F923F924F925F926F925D
:101390007F928F929F92AF92BF92CF92DF92EF9205
:1013A000FF920F931F932F933F934F935F936F93EE
:1013B0007F938F939F93AF93BF93EF93FF93CF93BD
:1013C000DF93CDB7DEB7EF97DEBFCDBF80916F0063
:1013D0008E7F80936F0078948090460190904701B3
:1013E0009CA68BA684010F5F1F4F1EA30DA30C5F4D
:1013F0001F4F19AF08AF8DA09EA099A688A6A8A5DB
:10140000B9A52D903D90B9A7A8A72114310409F4DE
:1014100010C1F101E95BFF4F808190E8980F9F3781
:1014200008F03FC03596E080B4E7EB9E70011124D0
:101430008701015A1D4FF80190819F7076E0C72EF9
:10144000F701C99EE00DF11D1124E150FE4F90817E
:1014500094FF27C0D101ED91FC910580F681E02D2C
:101460003097F9F0D8019C919F70D701C99EA00DCB
:10147000B11D1124A150BE4FDC90D5FADD24D0F867
:101480006D2D0995D812D5C0F80180818F70F701B4
:10149000C89EE00DF11D1124E150FE4F80818F7E2A
:1014A0008083D101D5968C91D597882309F4C1C04A
:1014B00054968C9184FFBDC083FFBBC0F101E45BF7
:1014C000FF4F4081042F10E0B4E74B9FF00111243F
:1014D000CF0182509E4FDC01A05ABF4F1C9219963B
:1014E000FC902FB7F89418973C918E599F4FDC01D0
:1014F0005C912FBF3517A9F13F5F19A21AA21BA259
:101500001CA266E0D62E531781F1EE24E394E30E7D
:101510003F70DF01D39EA00DB11D1124A250BE4F1C
:1015200012962D913C91139789A09AA0ABA0BCA0D4
:10153000820E931EA11CB11C89A29AA2ABA2BCA2CE
:10154000AC91A23060F0A150BB0B0E94F91B860E3B
:10155000971EA81EB91E89A29AA2ABA2BCA23E2DBC
:10156000D2CF19A21AA21BA21CA281E0F826FAA6C9
:1015700024E7429FA0011124BA0162507E4F7FAB45
:101580006EAB1DA6C101845B9F4F9FA78EA7D101A3
:10159000A95ABF4FBBAFAAAFB4E7B09FC001B19F7C
:1015A000900D11248C0106591D4F1DAF0CAF810108
:1015B000095B1F4F19AB08AB0E5F1F4F1BAB0AAB8C
:1015C000045F1F4F1DAB0CABAEA5BFA58C91B4E75C
:1015D0008B9FC001112482509E4F0E94AD06803126
:1015E000B1F0EAADFBAD80819181A281B38189A088
:1015F0009AA0ABA0BCA088169906AA06BB0608F064
:101600004FC0D101D5968C91D597811151C09DA421
:10161000992079F0F101E45BFF4F808104E7809F1E
:10162000C001112441E070E060E082509E4F0E94B2
:10163000BA0688AC99ACA8A4B9A48A149B0409F092
:10164000DECECDA0DEA0F12C99249394D6010D918D
:101650001D916D010115110509F41CC6F801EB5A25
:10166000FF4F80819181019709F014C6C8010E9443
:10167000F90781110FC6F801E55BFF4FE080319754
:101680008080ABA4BCA4712CF710E1C5B2E0AB0E16
:10169000B11CE1E07E1609F455C677247394F4CFAB
:1016A0008EA99FA90E94AD06823008F4AACFAFCFC1
:1016B000F101B7A0B6FABB24B0F8848980FF71C0ED
:1016C00083E13296559601900D928A95E1F7D1010A
:1016D00054968C915497F1011282138214821582D0
:1016E0008C7D8B7F848B7101F5E1EF0EF11C5D9693
:1016F0006D917D918D919C919097611571058105FA
:10170000910509F4BEC00E943F048C010E94E605C9
:10171000F10125A136A1245D3E4F4C01821A930AA6
:10172000940197FE02C02F5F3F4F359527952352B6
:10173000304DD1019F963C932E939E97081B190B19
:10174000201B310B9D963C932E939C97D10159966B
:101750004D915D916D917C915C97C7010E948E05C2
:10176000611571058105910509F491C0F10160A72A
:1017700071A782A793A7F10184A981FF12C04589AF
:1017800056896789708D97A195FF8DC000A911A911
:1017900022A933A9041715072607370711F08D7FF3
:1017A00084AB9FB7F89486E0ECADFDADDE015296B8
:1017B00001900D928A95E1F79FBFF101FE9640805E
:1017C000518062807380BFEF4B165B066B067B0611
:1017D00081F5F101C1A0D2A0E3A0F4A0C114D1040D
:1017E000E104F104C9F081010B5E1F4FB701A601AE
:1017F000C8010E941306DC01CB01F101418D528D1D
:10180000638D748D84179507A607B70728F4C80160
:101810000E948E056B017C01D101D696CD92DD929E
:10182000ED92FC92D99797968C9197978B7F97968C
:101830008C93F10187A182FF0DC0B301A201C10108
:1018400045960E948E05D101D6966D937D938D931A
:101850009C93D997F10184A980FF37C087A18F7B22
:1018600087A38A899B89AC89BD892E8946A957A9F6
:1018700060AD71AD2223F9F0840F951FA61FB71F2D
:101880001EC08FEF9FE7F10195A784A75FCF01E00E
:1018900010E020E030E0D10198960D931D932D9338
:1018A0003C939B9768CF452B462B472B09F479CF68
:1018B0008D7F84AB76CF841B950BA60BB70BF10104
:1018C00080AB91ABA2ABB3AB11C087A181FF0EC0BF
:1018D0008D7F87A386FD0AC0458956896789708DEB
:1018E00085FF31C040AB51AB62AB73ABD101979672
:1018F0002C9197972B7F97962C939797D4968C91B2
:10190000D49781FF2CC01A8219828D7FD4968C9334
:101910008A899B89AC89BD89F10180AB91ABA2AB6F
:10192000B3AB1D821A861B861C861D861E821F82F3
:101930001886198688248A94982C54018E869F864E
:10194000A88AB98A46C080A991A9A2A9B3A9BB2037
:1019500009F492CF8A899B89AC89BD898DCFDA96AB
:101960004D915D916D917C91DD974115510561051A
:10197000710509F498C041155105B1E06B07710577
:1019800070F0769567955795479541155105E1E0BB
:101990006E07710520F04FEF5FEF60E070E05A8353
:1019A00049831B828E898C838DE0F101F596DE01DF
:1019B000159601900D928A95E1F78A859B85AC85F5
:1019C000BD85841B950BA60BB70B8A879B87AC87BD
:1019D000BD8729813A812115310509F40BC381E0C6
:1019E000DAA4D826AEA5BFA58C91682E712CB4E7D9
:1019F0008B9F8001112402501E4FF801EE58FF4FBB
:101A0000408151812417350708F41AC4E8A9F9A9BF
:101A100020812F3F09F4BDC2F801E759FF4F9081A3
:101A20009111BBC2D1016D917C916115710509F4D1
:101A3000B4C28823E1F0DB011196ED91FC9130975F
:101A400099F0AF01495B5F4FDA019C9129130CC0FB
:101A5000E45BFF4FE081B4E7BE9FF0011124E95938
:101A6000FD4F908191111DC0813009F496C2FB0198
:101A700083819481009709F490C2FC01E95BFF4FD8
:101A8000308123138AC2845B9F4FDC01EC91B4E761
:101A9000BE9FF0011124E959FD4F8081882309F48C
:101AA0007CC282E052C38E888FA226FF2BC027FB08
:101AB000222720F944244A94542C642C1FE0712ED0
:101AC000D101D696CD90DD90ED90FC90D997C114C0
:101AD000D104E104F10409F495C4411451046104F2
:101AE000710409F096C4B2E0CB16D104E104F1040C
:101AF00008F08FC41A8219821A861B861C861D86DE
:101B00001D8218CF4A895B896C897D89F10180A982
:101B100091A9A2A9B3A9841B950BA60BB70B21E031
:101B200071F48FA02825B7FF07C0B095A0959095B8
:101B300081959F4FAF4FBF4F2C013D01C1CF18166C
:101B400019061A061B067CF320E0EDCF01E010E039
:101B5000198F088F78C412E01C8F088D198DC80169
:101B6000B0E0A0E088169906AA06BB0608F4D7C420
:101B7000411451046104710409F4BCCF0C8D01308F
:101B800009F43DC1811412E09106A104B10468F486
:101B900096948794A88CB98C8A149B0430F4811491
:101BA000910409F427C1998E888EB701A601888C0B
:101BB000998C480D591D611D711DC10145960E94EA
:101BC0001306D10159968D909D90AD90BC905C9775
:101BD00086169706A806B90610F44B015C01088D1D
:101BE000198DB2E0BC8FF0E88F16F2E09F06A104D9
:101BF000B10408F031C1D801A50194010E94621B13
:101C0000603872408105910508F026C1C4018158F1
:101C10009D4FB4010E94C31BCB01B0E0A0E084152E
:101C20009505A605B70518F0820134E03C8F06172C
:101C3000170708F48B01C801880F991FB0E0A0E0D6
:101C400084159505A605B70508F4FAC0C301B201CD
:101C500061587D4F8F4F9F4FA30192010E94D71B68
:101C600049015A0182014D8D5E8D6F8D78A14F3FE4
:101C70005F4F6F4F7F4F09F006C194E09C8F811436
:101C8000910431E0A306B10408F00DC1C801B0E031
:101C9000A0E0481659066A067B0608F4C2010097C0
:101CA00011F481E090E09FAF8EAF8F3F910529F056
:101CB00020F04FEF50E05FAF4EAF1D8E1E8E1F8E97
:101CC00018A2D501C4018C8C81FE0BC1AEACBFAC97
:101CD000CA0CDB1CE11CF11C8FA01C8D882009F4B0
:101CE00056C110629A8389839EAC9B82AFA0AC825E
:101CF0001D83CE82DF82E886F9860D8D1E8D2F8DA5
:101D000038A10A871B872C873D87800F911FA21F50
:101D1000B31F8E879F87A88BB98B5BCE888D998DDB
:101D2000880F991FB0E0A0E088169906AA06BB06A6
:101D300068F42D8D3E8D4F8D58A182010C191D091F
:101D40002F3F3F4F4F4F5F4F09F04BC0411451049D
:101D50006104710409F016CFCDCE8D8C9E8CAF8CB2
:101D6000B8A088169906AA06BB06A0F4A88CB98C60
:101D7000C501B0E0A0E08C159D05AE05BF0540F0A3
:101D8000C114D104E104F10409F4CCC3D98EC88E86
:101D900004E0AAC3530142018C189D08AE08BF0895
:101DA000888D998D880F991FB0E0A0E0881699065C
:101DB000AA06BB0608F092C384012D8D3E8D4F8D7F
:101DC00058A1203862E036074105510550F4C5019D
:101DD000B4010E94B31B603872408105910508F47C
:101DE0009CC3411451046104710409F483CE21E0C1
:101DF0002C8F07C001E010E0198F088FD6CE088D18
:101E0000198DD301C2018C199D09AE09BF098F3FFD
:101E10009105A105B10509F070F4288D398D220FC7
:101E2000331F8D8C9E8CAF8CB8A08217930708F05F
:101E3000DACE8C01D8CE8D8C9E8CAF8CB8A0D3CE50
:101E4000D701C601800F911FA11DB11D481659066B
:101E50006A067B0608F4A8C32D8D3E8D4F8D58A1D0
:101E60002F3F6FEF36074607560709F408CF7C8DE2
:101E700071FF0BC0281539054A055B0508F0FFCE38
:101E800049015A01FCCE84E08C8FAC8DA2FFF7CEC5
:101E90002D8D3E8D4F8D58A182169306A406B50652
:101EA00008F0EDCEEDCFD501C401B695A795979575
:101EB0008795009751E0A507B10520F08FEF9FEFC0
:101EC000A0E0B0E095018401081B190B2A0B3B0B25
:101ED0000D8F1E8F2F8F38A321E030E03FAF2EAF44
:101EE000F2CEBC8CB2FEF8CE0EAD1FADA80170E0F4
:101EF00060E0C416D506E606F70608F444C0F10112
:101F000080A491A4A2A4B3A48C149D04AE04BF0425
:101F100028F4C41AD50AE60AF70ADECEC814D90492
:101F2000EA04FB04E0F09B01080D191D2A1D3B1D6E
:101F3000401651066206730690F097018601041B55
:101F4000150B260B370B081519052A053B0538F428
:101F5000818D928DA38DB48D75016401BDCEC414A5
:101F6000D504E604F704A8F6530142018C189D0835
:101F7000AE08BF0884169506A606B70608F0ACCED4
:101F800073016201C6CFC12CD12C7601A5CE10649D
:101F9000A9CE8C81882309F455C1EAA9FBA9F08058
:101FA000F1104AC034E7832E869CF001879CF00D27
:101FB0001124E259FD4F90818C819813F6C04D2D6C
:101FC000BE016F5F7F4FC8010E94BA06EAA9FBA954
:101FD0009081992309F424C18111B7C08FB7F89477
:101FE000F101ED5AFF4F20813181ACA9BDA92D939C
:101FF0003C938FBF8DE0FE013596D101D5960190BF
:102000000D928A95E1F72B81A981BA81AD0170E02B
:1020100060E0223008F008C189A09AA0ABA0BCA063
:10202000840E951EA61EB71E89A29AA2ABA2BCA2C0
:102030009AA49DA680E089C02FB7F894ACA9BDA949
:102040008D919C912FBF892B09F0ACCFF101E65BFC
:10205000FF4F80818F3F79F087FF9BC0D101ED91C9
:10206000FC910580F681E02D309729F060E009951C
:1020700091E0F82EF926F101E55BFF4F80818F3F5B
:1020800069F087FF8AC0D101ED91FC910580F6814E
:10209000E02D309719F061E00995F82283E0FF20E8
:1020A00009F453C0F101E15BFF4F80809180A28071
:1020B000B38081149104A104B10409F473CF329761
:1020C00080819181B0E0A0E088169906AA06BB063F
:1020D00070F424E7269DF001279DF00D1124E259AC
:1020E000FD4F30812C81321711F04C015D01D5017B
:1020F000C401B695A79597958795009731E0A307FA
:10210000B10508F04EC07C0181159048A105B105CC
:1021100008F474011D8A1C8AFB8AEA8A8C818D8BE3
:1021200040E0BE016E5E7F4FC8010E94BA068E1865
:102130009F08A108B108D9F64D2D70E060E0C801F4
:102140000E94BA06882309F42DCF29813A81232BD6
:1021500009F45DCA882309F437CA0CF058CAD101C2
:10216000D5961C92D597F10112AE13AE14AE15AEF2
:10217000D6961D921D921D921C92D997FE96882488
:102180008A94982C540180829182A282B3821AA6EA
:102190001BCA60E00E94EC016ECF61E00E94EC017E
:1021A0007DCFEE24EA94FE2CB5CFA8A9B9A99C91C5
:1021B00097FF23C0C8010E94AD068F30E0F41D8A4E
:1021C0001C8A80E49FE19B8B8A8B8C818D8B4D2DAB
:1021D000BE016E5E7F4FC8010E94BA068111B5CF65
:1021E0004D2DBE016E5E7F4FC8010E94BA06882346
:1021F00009F4E5CEAACF81E0A8CFF101E35BFF4F60
:10220000208131812115310509F4D9CE9B81992393
:1022100009F4D5CE1D8A1C8A3B8B2A8B8D8BE0CF8F
:10222000882309F4E7CE91CF30E00E94A41B89A057
:102230009AA0ABA0BCA0860E971EA81EB91EF4CE15
:102240008FEF83CF8DEF81CFFF24F394FFC9D501AA
:1022500011960D911C910115110509F417CA6E2DE7
:10226000C8010E949C06811107C0682DC8010E9408
:102270009C06882309F40ACAC8010E94F907F801DC
:10228000EB5AFF4F208131812230310518F4882329
:1022900009F4FCC911E0F112D7CFADA1BEA18D9117
:1022A0009D91BEA3ADA30097B9F0FFB6F8948C0141
:1022B0000B5A1F4FF801208131812230310558F02F
:1022C0000E94F907811107C0D8018D919C91119747
:1022D00001978D939C93FFBE88A499A4ADA0BEA046
:1022E0008A149B04D1F6F89480916F0081608093EA
:1022F0006F00EF960FB6F894DEBF0FBECDBFDF9133
:10230000CF91FF91EF91BF91AF919F918F917F916D
:102310006F915F914F913F912F911F910F91FF907E
:10232000EF90DF90CF90BF90AF909F908F907F9075
:102330006F905F904F903F902F900F900FBE0F9037
:102340001F901895ADA0BEA0F501019111915F01FC
:102350000115110509F445C06E2DC8010E949C06A7
:10236000811106C0682DC8010E949C068823C9F10E
:10237000C8010E94F907882331F0F801E75BFF4F9D
:10238000808181112EC0F801E65BFF4F80818F3F75
:1023900091F187FF2DC0D801ED91FC910580F68168
:1023A000E02D309741F161E00995782EF801E55B69
:1023B000FF4F80818F3F71F087FF20C0D801ED91E2
:1023C000FC910580F681E02D309721F060E00995C1
:1023D00089257822772029F0F801EB5AFF4F1182E6
:1023E000108208A519A50A151B0509F453CFACCF17
:1023F00061E00E94EC0177247394D8CF60E00E94E2
:10240000EC01E8CF411451046104710409F472CB6A
:102410002FA3F101FE9680809180A280B3808D8EE3
:102420009E8EAF8EB8A200E880160EE39006A1043F
:10243000B10408F08BCB80E09DE76D8D7E8D0E940E
:10244000C31B798F688F1FA121134BC0C414D504FF
:10245000E604F70409F463C04C145D046E047F04C1
:1024600008F43FC0F101818D928DA38DB48D8D8CC8
:102470009E8CAF8CB8A088159905AA05BB0508F0FD
:102480006CCC530142018C189D08AE08BF080D8D1D
:102490001E8D2F8D38A1011545E01407210531054A
:1024A00008F03CCCC501B401B2E0969587957795CC
:1024B0006795BA95D1F7611571058105910509F404
:1024C0004ACBA90198010E94B31B01E06115754038
:1024D0008105910508F002E00C8F3FCB088D198D26
:1024E00080CC260137010CE00C8F411451046104AB
:1024F000710409F4FFCA088D198DE1E0CE16D104EC
:10250000E104F104C9F4D10159968D909D90AD90EC
:10251000BC905C97088D198D66CB998E888E14E0DF
:102520001C8FE3CF411451046104710409F4E2CA21
:1025300001E010E024E02C8F4801B12CA12C888E02
:10254000998EAA8EBB8E8C149D04AE04BF0450F4E9
:10255000A7019601281939094A095B09288F398F83
:102560004A8F5B8F488D598D6A8D7B8DC101459651
:102570000E9413064B015C01488D598D6A8D7B8D3D
:10258000413051056105710509F02DCBF101818DB7
:10259000928DA38DB48D88169906AA06BB0608F005
:1025A00022CB4C015D011FCB4D8D5E8D6F8D78A1CF
:1025B00094E09C8F4F3F5F4F6F4F7F4F09F065CC8A
:1025C00065CB1F920F920FB60F9211242F933F935A
:1025D0004F935F936F937F938F939F93AF93BF932B
:1025E000CF93DF93EF93FF938091D3025091D40266
:1025F000851324C080916F008B7F80936F00809142
:1026000080008F7C8093800080E480938200109211
:10261000DB021092DA02FF91EF91DF91CF91BF912F
:10262000AF919F918F917F916F915F914F913F916A
:102630002F910F900FBE0F901F901895682F6F70FD
:1026400046E0649FF0011124DF01AE58BD4FBF0189
:10265000E250FE4FEF01CA58DF4F28813981909137
:1026600080009F7E90629093800090E4909382001F
:10267000EC58FF4F9081923040F0915090838091C0
:10268000800080638093800028C0E091DA02EE230E
:10269000B1F01092DA02992311F02AE030E011969D
:1026A0008C91119780FF07C0E091D702F091D8027A
:1026B0008091D90280838C91882379F0E0CFFB014F
:1026C000EE58FD4F918194FDEACF8F5F8093D30246
:1026D00058130EC081E08093DA0280918A009091B5
:1026E0008B00820F931F90938B0080938A0093CF6F
:1026F0008F70849FD0011124AE58BD4FD0CF1F9250
:102700000F920FB60F9211242F933F934F935F9325
:102710006F938F939F93AF93BF93EF93FF938091AA
:102720005F0250916002851321C080916F008D7F00
:1027300080936F00809180008F738093800080E889
:10274000809382001092670210926602FF91EF91CF
:10275000BF91AF919F918F916F915F914F913F91F9
:102760002F910F900FBE0F901F901895E82FEF70CC
:1027700046E0E49FF0011124E250FE4F22813381B4
:10278000909180009F7B90689093800090E8909358
:1027900082009081923040F091509083809180002F
:1027A000806C8093800024C0609166026623A1F053
:1027B00010926602992311F02AE030E0818180FFB7
:1027C00007C0A0916302B0916402809165028C936E
:1027D0008081882369F0E2CF918194FDEFCFE1E021
:1027E000E80FE0935F025E130EC081E08093660203
:1027F0008091880090918900820F931F90938900A7
:1028000080938800A3CFEF70E49FF0011124E25081
:10281000FE4FD4CF1F920F920FB60F9211242F9319
:102820003F934F935F936F937F938F939F93AF9358
:10283000BF93EF93FF930E941908FF91EF91BF910F
:10284000AF919F918F917F916F915F914F913F9148
:102850002F910F900FBE0F901F9018951F920F92FF
:102860000FB60F9211242F933F934F935F936F9363
:102870007F938F939F93AF93BF93EF93FF930E94A8
:102880000A14FF91EF91BF91AF919F918F917F912A
:102890006F915F914F913F912F910F900FBE0F90CD
:1028A0001F901895CF93DF93CDB7DEB728970FB65B
:1028B000F894DEBF0FBECDBF789484B5826084BD2E
:1028C00084B5816084BD85B5826085BD85B5816034
:1028D00085BD80916E00816080936E0010928100B2
:1028E000809181008260809381008091810081606D
:1028F000809381008091800081608093800080912E
:10290000B10084608093B1008091B00081608093B9
:10291000B00080917A00846080937A0080917A0080
:10292000826080937A0080917A00816080937A003F
:1029300080917A00806880937A001092C100E091C3
:102940000903F0910A0382E08083E0910503F0918E
:1029500006031082E0910703F091080380E1808371
:1029600010921103E0910D03F0910E0386E0808335
:10297000E0910B03F0910C03808180618083E091F2
:102980000B03F0910C03808188608083E0910B033E
:10299000F0910C03808180688083E0910B03F091BB
:1029A0000C0380818F7D808387B1807C87B9569AA4
:1029B0008AB1877E8AB980916C008F6380936C00A6
:1029C00080916D00886180936D00809168008660C1
:1029D00080936800789428EE32E01092EE02109214
:1029E000ED021092EA021092E9021092EC021092AB
:1029F000EB02309347012093460191E09093E80267
:102A00003093490120934801109291011092960150
:102A100010929501109297011092980110929901CD
:102A200010929A0121E030E030939C0120939B01A9
:102A300010929E0110929D0189E080938E019093E7
:102A400090012FEF20938F01209393012093920107
:102A500040E052EE64E070E040939F015093A0018B
:102A60006093A1017093A20110924A0110924B0150
:102A700010924C0110924D0180915C01807880622F
:102A8000806880935C011092520110925301109261
:102A90005401109255011092560110925701109254
:102AA00058011092590110924E0110924F0110924C
:102AB00050011092510110925D0110925E0110922E
:102AC0005F011092600180916F0180788062806860
:102AD00080936F0110926501109266011092670158
:102AE000109268011092690110926A0110926B01B4
:102AF00010926C01109261011092620110926301B8
:102B00001092640180917C018E7F8D7F80937C0187
:102B100010927D0110928201109283011092840123
:102B20001092850110927E0110927F011092800117
:102B3000109281014FEF5FEFBA01409386015093ED
:102B4000870160938801709389011092940120930A
:102B5000620220E83EE330937102209370021092EB
:102B60005E0210925F021092600290936F02909347
:102B70006E0210926A0210926B0210926C02109216
:102B80006D0290936102109267021092660260E0FB
:102B900089E00E94EC0189E00E94CD011092690257
:102BA00010926802809180008F73809380008091E2
:102BB0006F008D7F80936F0080E88093820080910A
:102BC00080008C7F8093800080918100877E80933D
:102BD000810080918100887F816080938100809155
:102BE0006F00816080936F0088E491E09093EA0227
:102BF0008093E9022091E8028091940190E034E70B
:102C0000389FF001399FF00D1124E059FD4F80E409
:102C100091E0213031F080E293E0223011F48AEA31
:102C200091E0918380838091EB029091EC02009778
:102C3000A1F0845B9F4FFC01808190E0213009F07E
:102C400000C124E7289FF001299FF00D1124E059CD
:102C5000FD4F80E491E09183808388E491E090933C
:102C6000E7028093E60208E000938F0111E01093E1
:102C7000900161E088E00E94EC0188E00E94CD01B3
:102C8000A0919401F4E7AF9FD0011124A250BE4F50
:102C9000FD01EC59FF4F008331971083EDEDF2E019
:102CA000E491F0E0EE0FFF1FED55FD4F85919491FB
:102CB000FD01EB59FF4F91838083E1EFF2E0E49156
:102CC000A959BF4FEC93109296011092950187E09D
:102CD0008093920161E00E94EC0187E00E94CD01A7
:102CE00080919301873019F48FEF8093930181E0F5
:102CF0008093910180919B0190919C01892B31F4EB
:102D000081E090E090939C0180939B0188E893E19F
:102D1000A0E0B0E080938A0190938B01A0938C0196
:102D2000B0938D0168E873E180E090E00E943F0479
:102D30009C0180915C0183FF07C080915A019091B2
:102D40005B012817390769F08FB7F89490915C01FF
:102D50009A60946090935C0130935B0120935A01D8
:102D60008FBF6091EF0270E090E080E00E94401A17
:102D700020E030E84CEA56E40E94A11A20E030E05E
:102D80004FE753E40E94731C0E94E51CAB01BC0199
:102D90008091E6029091E7020E9457065E9A0E9497
:102DA00019088091E6029091E70202960E94AA011A
:102DB00090E0A92E90E0B92E89EF92E00E94FB02EC
:102DC000892B09F483C01A8219821C821B821E82FD
:102DD0001D8270E060E0CE0101960E94F408298116
:102DE0003A81811146C02115310519F0C9010E94AF
:102DF000BA1D1A8219821E821D821C821B820E94A9
:102E0000AD020D811E8197FD3CC08A309105C9F14C
:102E10008F8318860F5F1F4FB801CE0101960E9465
:102E2000F408882361F329813A818D819E81BE0156
:102E3000695F7F4F820F931F0E94091F1E830D83BE
:102E4000DECF223059F424E7289FF001299FF00DAE
:102E50001124E059FD4F8AEA91E0FDCE24E7289F36
:102E6000F001299FF00D1124E059FD4F80E293E01D
:102E7000F2CE1E821D8266E271E0C9010E94091F26
:102E8000BECFC980DA80C114D10429F076010115C2
:102E9000110509F082C08D819E81892B89F089817D
:102EA0009A81009709F4AFC00E94C6186093000190
:102EB0007093010180930201909303010E9419080D
:102EC00089819A81009711F00E94BA1D8CE191E0EE
:102ED0000E94A3086091EF0270E090E080E04AE079
:102EE0000E94B00884E291E00E94A30887E291E08A
:102EF0000E94A308C0900001D0900101E09002015F
:102F0000F0900301A7019601C701B6010E94191DA7
:102F1000882309F47CC08EE291E00E94A30884E239
:102F200091E00E94A3088AE391E00E94A30884E252
:102F300091E00E94A3080E9438022B013C0188EE18
:102F4000C82E83E0D82EE12CF12C0E94380264199F
:102F5000750986099709683E734081059105A8F3B4
:102F6000F1E0CF1AD108E108F10828EE420E23E083
:102F7000521E611C711CC114D104E104F10429F733
:102F8000A114B10409F418CF0E940703882309F49F
:102F900013CF0E94000010CF730137012FEF621A88
:102FA000720AF7018081082E000C990B0E941A1AF0
:102FB000892B91F7015011090C0D1D1DF80180811D
:102FC000082E000C990B0E941A1A892B31F00E154D
:102FD0001F0518F001501109F1CFA8014F5F5F4F95
:102FE0004E195F095E834D83CE14DF0420F4B701D0
:102FF000C6010E94001FE981FA818D819E81E80F40
:10300000F91F108248CF60E070E0CB014FCF26015E
:103010003701E89477F82FEF3FEF4FE75FE7C30101
:10302000B2010E94191D81110DC02FEF3FEF4FE734
:103030005FE7C301B2010E943B1A18161CF482E339
:1030400091E06BCF2FEF3FEF4FE75FE4C701B60191
:103050000E94141D18161CF486E391E05ECF2FEF3A
:103060003FEF4FE75FECC701B6010E943B1A87FDB7
:10307000F3CF20E030E0A901C701B6010E943B1A5E
:1030800087FF09C06DE289EF92E00E943D03F7FAE5
:10309000F094F7F8F0942AE037ED43EA5BE3C701D8
:1030A000B6010E94071C6B017C010E94E51C2B01EC
:1030B0003C010E94401A9B01AC01C701B6010E946D
:1030C000061C6B017C014AE0C301B2010E94B008FA
:1030D0006EE289EF92E00E943D0320E030E040E2A2
:1030E00051E4C701B6010E94A11A2B013C010E94C4
:1030F000E51C6B01F12CE12C4AE0C701B6010E94EE
:10310000B008C701B6010E94401A9B01AC01C3017F
:10311000B2010E94061C20E030E040E251E40E942F
:10312000A11A0E94E51C90E080E04AE00E94B008ED
:10313000F6CEE9EFF2E01382128288EE93E0A0E08F
:10314000B0E084839583A683B7838EE091E091837A
:10315000808385EC90E09587848784EC90E0978766
:10316000868780EC90E0918B808B81EC90E0938B54
:10317000828B82EC90E0958B848B86EC90E0978B31
:10318000868B118E128E138E148E089566277727E4
:103190000C94CA18B0E0A0E0E0EDF8E10C94731BC9
:1031A0005C017B016115710519F0DB018D939C9326
:1031B00085010F5F1F4FF501D0818D2F90E00E9498
:1031C0001A1A6C01892BB9F5DD32B9F50F5F1F4F63
:1031D000D5011196DC91C1E05801F1E0AF1AB108B8
:1031E00043E050E060E770E0C5010E94231A892B9C
:1031F00069F5680182E0C80ED11C45E050E06BE63D
:1032000070E0C6010E94231A892B21F4680197E01F
:10321000C90ED11CE114F10419F0D701CD92DC9252
:1032200060E070E080E89FEFC111FFC060E070E0F7
:1032300080E89FE7FAC05801BBCFDB3229F4850153
:103240000E5F1F4FF501D181C0E0C6CF43E050E0D3
:1032500068E670E0C5010E94231A892BE9F0F801A5
:1032600010E000E020E030E0A9015F01B0ED8B2E1E
:103270008D0E89E08815C8F19C2E689491F88C2FEA
:103280008870C2FF16C0811102C00F5F1F4F3196B8
:10329000D501DC91C92DE9CFE114F10429F00E5FCD
:1032A0001F4FF7011183008360E070E080EC9FE71F
:1032B000BCC0882311F001501109A5E0B0E00E94C4
:1032C000621B9B01AC01220F331F441F551F280DA9
:1032D000311D411D511D283999E93907490799E1E7
:1032E0005907A8F2C6609C2ED2CFAEEF8A1206C054
:1032F000C3FD3CC09C2E689493F8C9CFDF7DD534C4
:10330000A9F580818D3239F4C061DF011296818187
:1033100062E070E006C0DF018B32C1F3119661E01C
:1033200070E080535D01A61AB70A8A30F8F4E0E82D
:10333000CE16ECE0DE065CF4B601660F771F660F72
:10334000771FC60ED71ECC0CDD1CC80ED11C5D012C
:10335000FFEFAF1ABF0A8C9180538A30A8F1C4FFE7
:1033600003C0D194C194D1080C0D1D1DC1FF09C02B
:10337000E114F10431F081E0A81AB108D701AD924F
:10338000BC92CA01B9010E94401AC370C33009F44B
:1033900090584B015C0120E030E0A9010E943B1AEB
:1033A000882309F440C0CFE9D0E017FF05C011958C
:1033B00001951109C7E8D0E06E01B8E1CB1AD10838
:1033C00080E2E82EF12C0FC0D501B1CFFE0125918E
:1033D0003591459154910E191F09C501B4010E9400
:1033E000A11A4B015C01D501C4010E151F0574F72C
:1033F0002497F594E794CC16DD06A9F78A2F880F59
:103400008B2F881F8F3F49F020E030E0A901C501D4
:10341000B4010E943B1A811106C082E290E09093B1
:10342000970380939603C501B401CDB7DEB7ECE0F6
:103430000C948F1B91110C940E1B803219F0895043
:103440008550C8F70895FB01DC014150504088F0D9
:103450008D9181341CF08B350CF4805E6591613464
:103460001CF06B350CF4605E861B611171F3990BD7
:103470000895881BFCCF0E947D1A08F481E008950E
:10348000E89409C097FB3EF49095809570956195FE
:103490007F4F8F4F9F4F9923A9F0F92F96E9BB27B4
:1034A0009395F695879577956795B795F111F8CF30
:1034B000FAF4BB0F11F460FF1BC06F5F7F4F8F4F9B
:1034C0009F4F16C0882311F096E911C0772321F091
:1034D0009EE8872F762F05C0662371F096E8862F29
:1034E00070E060E02AF09A95660F771F881FDAF780
:1034F000880F9695879597F90895990F0008550FAD
:10350000AA0BE0E8FEEF16161706E807F907C0F069
:1035100012161306E407F50798F0621B730B840B71
:10352000950B39F40A2661F0232B242B252B21F44B
:1035300008950A2609F4A140A6958FEF811D811DEB
:1035400008950E94B41A0C94281B0E941A1B38F08C
:103550000E94211B20F0952311F00C94111B0C9458
:10356000171B11240C945C1B0E94391B70F3959F50
:10357000C1F3950F50E0551F629FF001729FBB276A
:10358000F00DB11D639FAA27F00DB11DAA1F649F06
:103590006627B00DA11D661F829F2227B00DA11DB9
:1035A000621F739FB00DA11D621F839FA00D611D3F
:1035B000221F749F3327A00D611D231F849F600D60
:1035C000211D822F762F6A2F11249F5750409AF089
:1035D000F1F088234AF0EE0FFF1FBB1F661F771F15
:1035E000881F91505040A9F79E3F510580F00C94E0
:1035F000111B0C945C1B5F3FE4F3983ED4F386955B
:1036000077956795B795F795E7959F5FC1F7FE2B7F
:10361000880F911D9695879597F908959927882782
:10362000089597F99F6780E870E060E008959FEF44
:1036300080EC089500240A94161617061806090649
:10364000089500240A941216130614060506089518
:10365000092E0394000C11F4882352F0BB0F40F4A0
:10366000BF2B11F460FF04C06F5F7F4F8F4F9F4FE0
:10367000089557FD9058440F551F59F05F3F71F062
:103680004795880F97FB991F61F09F3F79F08795C9
:103690000895121613061406551FF2CF4695F1DF52
:1036A00008C0161617061806991FF1CF86957105E2
:1036B000610508940895E894BB2766277727CB0116
:1036C00097F908950E94A41BA59F900DB49F900D9B
:1036D000A49F800D911D112408952F923F924F9227
:1036E0005F926F927F928F929F92AF92BF92CF9292
:1036F000DF92EF92FF920F931F93CF93DF93CDB79B
:10370000DEB7CA1BDB0B0FB6F894DEBF0FBECDBF12
:1037100009942A88398848885F846E847D848C84E3
:103720009B84AA84B984C884DF80EE80FD800C81EC
:103730001B81AA81B981CE0FD11D0FB6F894DEBFCF
:103740000FBECDBFED010895A29FB001B39FC00190
:10375000A39F700D811D1124911DB29F700D811DBD
:103760001124911D0895DB018F939F930E94621B8A
:10377000BF91AF91A29F800D911DA39F900DB29F0D
:10378000900D11240895AA1BBB1B51E107C0AA1F6D
:10379000BB1FA617B70710F0A61BB70B881F991FF2
:1037A0005A95A9F780959095BC01CD010895A1E2A5
:1037B0001A2EAA1BBB1BFD010DC0AA1FBB1FEE1FAB
:1037C000FF1FA217B307E407F50720F0A21BB30BF6
:1037D000E40BF50B661F771F881F991F1A9469F772
:1037E00060957095809590959B01AC01BD01CF01CE
:1037F00008950E94A41BB7FF0895821B930B0895A0
:10380000EE0FFF1F0590F491E02D09945058BB274F
:10381000AA270E941E1C0C94281B0E941A1B38F019
:103820000E94211B20F039F49F3F19F426F40C94D8
:10383000171B0EF4E095E7FB0C94111BE92F0E9477
:10384000391B58F3BA17620773078407950720F0EE
:1038500079F4A6F50C945B1B0EF4E0950B2EBA2FB1
:10386000A02D0B01B90190010C01CA01A001112486
:10387000FF27591B99F0593F50F4503E68F11A1632
:10388000F040A22F232F342F4427585FF3CF4695C3
:1038900037952795A795F0405395C9F77EF41F16E5
:1038A000BA0B620B730B840BBAF09150A1F0FF0FAF
:1038B000BB1F661F771F881FC2F70EC0BA0F621F9B
:1038C000731F841F48F4879577956795B795F7958B
:1038D0009E3F08F0B0CF9395880F08F09927EE0F20
:1038E0009795879508950E94871C0C94281B0E9429
:1038F000211B58F00E941A1B40F029F45F3F29F069
:103900000C94111B51110C945C1B0C94171B0E94FE
:10391000391B68F39923B1F3552391F3951B550B8C
:10392000BB27AA2762177307840738F09F5F5F4F92
:10393000220F331F441FAA1FA9F335D00E2E3AF0D1
:10394000E0E832D091505040E695001CCAF72BD0E9
:10395000FE2F29D0660F771F881FBB1F261737073A
:103960004807AB07B0E809F0BB0B802DBF01FF276C
:1039700093585F4F3AF09E3F510578F00C94111B1D
:103980000C945C1B5F3FE4F3983ED4F386957795E7
:103990006795B795F7959F5FC9F7880F911D969525
:1039A000879597F90895E1E0660F771F881FBB1F81
:1039B000621773078407BA0720F0621B730B840B2E
:1039C000BA0BEE1F88F7E09508950E94411B88F01E
:1039D0009F5798F0B92F9927B751B0F0E1F0660FD3
:1039E000771F881F991F1AF0BA95C9F714C0B13014
:1039F00091F00E945B1BB1E008950C945B1B672F54
:103A0000782F8827B85F39F0B93FCCF38695779542
:103A10006795B395D9F73EF490958095709561952B
:103A20007F4F8F4F9F4F08950E947D1A08F48FEFAC
:103A300008950E947D1A880B990B08950F931F9388
:103A4000CF93DF938230910510F482E090E0E09113
:103A50009A03F0919B0330E020E0B0E0A0E03097C3
:103A600099F42115310509F44AC0281B390B24307B
:103A70003105D8F58A819B816115710589F1FB01BA
:103A800093838283FE0111C04081518102811381A1
:103A900048175907E0F04817590799F4109761F053
:103AA00012960C93129713961C933296CF01DF91C6
:103AB000CF911F910F91089500939A0310939B0348
:103AC000F4CF2115310551F04217530738F0A90101
:103AD000DB019A01BD01DF01F801C1CFEF01F9CF90
:103AE00090939B0380939A03CDCFFE01E20FF31FC7
:103AF000819391932250310939832883D7CF209124
:103B0000980330919903232B41F4209106013091C1
:103B10000701309399032093980320910401309179
:103B200005012115310541F42DB73EB7409108013B
:103B300050910901241B350BE0919803F0919903F2
:103B4000E217F307A0F42E1B3F0B2817390778F074
:103B5000AC014E5F5F4F2417350748F04E0F5F1FD3
:103B60005093990340939803819391939FCFF0E0F2
:103B7000E0E09CCFCF93DF930097E9F0FC01329710
:103B800013821282A0919A03B0919B03ED0130E061
:103B900020E01097A1F420813181820F931F2091A2
:103BA0009803309199032817390709F061C0F09301
:103BB0009903E0939803DF91CF910895EA01CE171E
:103BC000DF07E8F54A815B819E0141155105B1F798
:103BD000E901FB83EA8349915991C40FD51FEC1782
:103BE000FD0761F4808191810296840F951FE901A0
:103BF00099838883828193819B838A83F0E0E0E0CC
:103C000012968D919C9113970097B9F52D913C9147
:103C10001197CD010296820F931F20919803309146
:103C200099032817390739F6309751F510929B03FD
:103C300010929A03B0939903A0939803BCCFD383B7
:103C4000C28340815181840F951FC817D90761F441
:103C50004E5F5F4F88819981480F591F5183408380
:103C60008A819B81938382832115310509F0B0CF2E
:103C7000F0939B03E0939A039ECFFD01DC01C0CF3C
:103C800013821282D7CFB0E0A0E0E9E4FEE10C9409
:103C90006F1B8C01009751F4CB010E941E1D8C01FB
:103CA000C801CDB7DEB7E0E10C948B1BFC01E60F39
:103CB000F71F9C0122503109E217F30708F49DC059
:103CC000D901CD91DC911197C617D70798F0C5306F
:103CD000D10530F3CE0104978617970708F3C61B6A
:103CE000D70B2297C193D1936D937C93CF010E9400
:103CF000BA1DD6CF5B01AC1ABD0A4C018C0E9D1EBD
:103D0000A0919A03B0919B03512C412CF12CE12CF2
:103D1000109731F580919803909199038815990532
:103D200009F05CC04616570608F058C0809104019F
:103D300090910501009741F48DB79EB7409108011D
:103D400050910901841B950BE817F90708F055C03D
:103D5000F0939903E0939803F90171836083A0CFF6
:103D60008D919C91119712966C90129713967C905E
:103D70001397A815B90559F56C0142E0C40ED11C82
:103D8000CA14DB0420F1AC014A195B09DA0112966E
:103D9000159780F06282738251834083D9016D93BD
:103DA0007C93E114F10471F0D7011396FC93EE9328
:103DB000129776CF22968C0F9D1FF90191838083F5
:103DC000F301EFCFF0939B03E0939A0369CF48167A
:103DD000590608F42C017D01D3019ACFCB010E9432
:103DE0001E1D7C01009749F0AE01B8010E94001F22
:103DF000C8010E94BA1D870153CF10E000E050CFE8
:103E0000FB01DC0102C001900D9241505040D8F7F7
:103E10000895FB01DC0101900D920020E1F7089567
:043E2000F894FFCF44
:103E24000000803F00009C038000000000003D0370
:103E34005D028A028A03FB029902ED0253706565F2
:103E4400643A20000D0A00466C6F773A20006E61D8
:103E54006E00696E66006F7666005F5F5F5F5F5F2E
:063E64005F5F5F5F5F007D
:00000001FF
